:020000040800F2
:100000000000022001510008534E00085B4E00081A
:10001000634E00086B4E0008734E0008000000009D
:100020000000000000000000000000007B4E0008FF
:10003000894E000800000000974E0008A54E0008F9
:100040005151000851510008515100085151000808
:100050005151000851510008D14E0008515100087B
:1000600051510008515100085151000851510008E8
:1000700051510008515100085151000851510008D8
:10008000F94E0008515100085151000800000000CD
:1000900000000000000000000000000051510008B6
:1000A000515100080D4F00085151000851510008EE
:1000B000515100085151000851510008414F0008AA
:1000C0005151000851510008515100085151000888
:1000D0005151000851510008515100080000000022
:1000E0005151000851510008515100080000000012
:1000F0000000000000000000000000005151000856
:1001000000000000515100085151000851510008F1
:1001100000000000000000000000000000000000DF
:100120005151000851510008515100085151000827
:100130005151000800000000000000000000000015
:100140000000000000000000000000005151000805
:1001500051510008515100085151000851510008F7
:10016000515100085151000800000000000000003B
:10017000000000000000000000000000000000007F
:1001800000000000515100080000000000000000C5
:08019000515100085151000813
:1001A00010B5054C237833B9044B13B10448AFF3B1
:1001B00000800123237010BD6004002000000000B7
:1001C0007CEC050808B5034B1BB103490348AFF3AA
:1001D000008008BD00000000640400207CEC0508DD
:1001E00010F8012B11F8013B012A28BF9A42F7D0E1
:1001F000D01A70470000000000000000000000005E
:1002000001F0FF01102A2BDB10F0070F08D010F8C7
:10021000013B013A8B422DD010F0070F42B3F6D1CB
:10022000F0B441EA012141EA014122F007047FF0E4
:1002300000070023F0E80256083C85EA010586EA3B
:10024000010685FA47F5A3FA87F586FA47F6A5FA77
:1002500087F68EB9EED1F0BC01F0FF0102F0070283
:1002600032B110F8013B013A83EA010313B1F8D12E
:100270000020704701387047002D06BF354603380F
:10028000073815F0010F07D1013015F4807F02BF48
:10029000013015F4C03F0130F0BC0138704700BF99
:1002A000034613F8012B002AFBD1181A01387047B6
:1002B00081F0004102E000BF83F0004330B54FEA17
:1002C00041044FEA430594EA050F08BF90EA020F84
:1002D0001FBF54EA000C55EA020C7FEA645C7FEA17
:1002E000655C00F0E2804FEA5454D4EB5555B8BF3A
:1002F0006D420CDD2C4480EA020281EA030382EAAB
:10030000000083EA010180EA020281EA0303362D3C
:1003100088BF30BD11F0004F4FEA01314FF4801C0F
:100320004CEA113102D0404261EB410113F0004F21
:100330004FEA03334CEA133302D0524263EB4303D8
:1003400094EA050F00F0A780A4F10104D5F1200E76
:100350000DDB02FA0EFC22FA05F2801841F10001D1
:1003600003FA0EF2801843FA05F359410EE0A5F1A5
:1003700020050EF1200E012A03FA0EFC28BF4CF0D6
:10038000020C43FA05F3C01851EBE37101F000458C
:1003900007D54FF0000EDCF1000C7EEB00006EEB99
:1003A0000101B1F5801F1BD3B1F5001F0CD3490823
:1003B0005FEA30004FEA3C0C04F101044FEA44527A
:1003C00012F5800F80F09A80BCF1004F08BF5FEA01
:1003D000500C50F1000041EB045141EA050130BDE1
:1003E0005FEA4C0C404141EB0101013C28BFB1F5F3
:1003F000801FE9D291F0000F04BF01460020B1FA3E
:1004000081F308BF2033A3F10B03B3F120020CDA10
:100410000C3208DD02F1140CC2F10C0201FA0CF0EE
:1004200021FA02F10CE002F11402D8BFC2F1200C53
:1004300001FA02F120FA0CFCDCBF41EA0C01904009
:10044000E41AA2BF01EB0451294330BD6FEA040452
:100450001F3C1CDA0C340EDC04F11404C4F120023D
:1004600020FA04F001FA02F340EA030021FA04F34F
:1004700045EA030130BDC4F10C04C4F1200220FAA6
:1004800002F001FA04F340EA0300294630BD21FAE4
:1004900004F0294630BD94F0000F83F4801306BFAA
:1004A00081F480110134013D4EE77FEA645C18BF9E
:1004B0007FEA655C29D094EA050F08BF90EA020F35
:1004C00005D054EA000C04BF1946104630BD91EA2D
:1004D000030F1EBF0021002030BD5FEA545C05D130
:1004E0004000494128BF41F0004130BD14F580046F
:1004F0003CBF01F5801130BD01F0004545F0FE41E3
:1005000041F470014FF0000030BD7FEA645C1ABF17
:10051000194610467FEA655C1CBF0B46024650EA4E
:10052000013406BF52EA033591EA030F41F400217A
:1005300030BD00BF90F0000F04BF0021704730B500
:100540004FF4806404F132044FF000054FF00001D5
:1005500050E700BF90F0000F04BF0021704730B596
:100560004FF4806404F1320410F0004548BF40426B
:100570004FF000013EE700BF42004FEAE2014FEAC0
:1005800031014FEA02701FBF12F07F4393F07F4F9B
:1005900081F06051704732F07F4208BF704793F09E
:1005A0007F4F04BF41F40021704730B54FF46074B1
:1005B00001F0004521F000411CE700BF50EA0102B4
:1005C00008BF704730B54FF000050AE050EA01025D
:1005D00008BF704730B511F0004502D5404261EBCD
:1005E00041014FF4806404F132045FEA915C3FF40E
:1005F000D8AE4FF003025FEADC0C18BF03325FEAAB
:10060000DC0C18BF033202EBDC02C2F1200300FA5B
:1006100003FC20FA02F001FA03FE40EA0E0021FA80
:1006200002F11444BDE600BF70B54FF0FF0C4CF46E
:10063000E06C1CEA11541DBF1CEA135594EA0C0F20
:1006400095EA0C0F00F0DEF82C4481EA030621EA5B
:100650004C5123EA4C5350EA013518BF52EA033596
:1006600041F4801143F4801338D0A0FB02CE4FF048
:100670000005E1FB02E506F00042E0FB03E54FF078
:100680000006E1FB03569CF0000F18BF4EF0010E70
:10069000A4F1FF04B6F5007F64F5407404D25FEA6C
:1006A0004E0E6D4146EB060642EAC62141EA55511F
:1006B0004FEAC52040EA5E504FEACE2EB4F1FD0C61
:1006C00088BFBCF5E06F1ED8BEF1004F08BF5FEADF
:1006D000500E50F1000041EB045170BD06F0004691
:1006E00046EA010140EA020081EA0301B4EB5C043E
:1006F000C2BFD4EB0C0541EA045170BD41F4801136
:100700004FF0000E013C00F3AB8014F1360FDEBF5A
:10071000002001F0004170BDC4F10004203C35DA36
:100720000C341BDC04F11404C4F1200500FA05F3B9
:1007300020FA04F001FA05F240EA020001F000425A
:1007400021F0004110EBD37021FA04F642EB0601D0
:100750005EEA430E08BF20EAD37070BDC4F10C04FA
:10076000C4F1200500FA04F320FA05F001FA04F2BE
:1007700040EA020001F0004110EBD37041F10001AA
:100780005EEA430E08BF20EAD37070BDC4F12005B5
:1007900000FA05F24EEA020E20FA04F301FA05F21D
:1007A00043EA020321FA04F001F0004121FA04F2C5
:1007B00020EA020000EBD3705EEA430E08BF20EA95
:1007C000D37070BD94F0000F0FD101F000464000CF
:1007D00041EB010111F4801F08BF013CF7D041EA51
:1007E000060195F0000F18BF704703F00046520055
:1007F00043EB030313F4801F08BF013DF7D043EA26
:100800000603704794EA0C0F0CEA135518BF95EADB
:100810000C0F0CD050EA410618BF52EA4306D1D162
:1008200081EA030101F000414FF0000070BD50EA81
:10083000410606BF1046194652EA430619D094EA0B
:100840000C0F02D150EA013613D195EA0C0F05D1F5
:1008500052EA03361CBF104619460AD181EA030149
:1008600001F0004141F0FE4141F470014FF0000001
:1008700070BD41F0FE4141F4780170BD70B54FF09C
:10088000FF0C4CF4E06C1CEA11541DBF1CEA13551C
:1008900094EA0C0F95EA0C0F00F0A7F8A4EB0504FE
:1008A00081EA030E52EA03354FEA013100F08880F5
:1008B0004FEA03334FF0805545EA131343EA1263BE
:1008C0004FEA022245EA111545EA10654FEA002673
:1008D0000EF000419D4208BF964244F1FD0404F52C
:1008E000407402D25B084FEA3202B61A65EB030588
:1008F0005B084FEA32024FF480104FF4002CB6EB45
:10090000020E75EB030E22BFB61A754640EA0C00C4
:100910005B084FEA3202B6EB020E75EB030E22BF04
:10092000B61A754640EA5C005B084FEA3202B6EB45
:10093000020E75EB030E22BFB61A754640EA9C0004
:100940005B084FEA3202B6EB020E75EB030E22BFD4
:10095000B61A754640EADC0055EA060E18D04FEA92
:10096000051545EA16754FEA06164FEAC30343EA32
:1009700052734FEAC2025FEA1C1CC0D111F4801FFF
:100980000BD141EA00014FF000004FF0004CB6E7F8
:1009900011F4801F04BF01430020B4F1FD0C88BF97
:1009A000BCF5E06F3FF6AFAEB5EB030C04BFB6EBA2
:1009B000020C5FEA500C50F1000041EB045170BD95
:1009C0000EF0004E4EEA113114EB5C04C2BFD4EBC2
:1009D0000C0541EA045170BD41F480114FF0000E46
:1009E000013C90E645EA060E8DE60CEA135594EAC2
:1009F0000C0F08BF95EA0C0F3FF43BAF94EA0C0FC5
:100A00000AD150EA01347FF434AF95EA0C0F7FF439
:100A100025AF104619462CE795EA0C0F06D152EA8D
:100A200003353FF4FDAE1046194622E750EA410671
:100A300018BF52EA43067FF4C5AE50EA41047FF482
:100A40000DAF52EA43057FF4EBAE12E74FF0FF3CE7
:100A500006E000BF4FF0010C02E000BF4FF0010CB8
:100A60004DF804CD4FEA410C7FEA6C5C4FEA430C31
:100A700018BF7FEA6C5C1BD001B050EA410C0CBF80
:100A800052EA430C91EA030F02BF90EA020F0020E2
:100A9000704710F1000F91EA030F58BF994208BF49
:100AA00090422CBFD8176FEAE37040F00100704706
:100AB0004FEA410C7FEA6C5C02D150EA013C07D15D
:100AC0004FEA430C7FEA6C5CD6D152EA033CD3D0A8
:100AD0005DF8040B704700BF8446104662468C46A2
:100AE0001946634600E000BF01B5FFF7B7FF0028D5
:100AF00048BF10F1000F01BD4DF808EDFFF7F4FFFE
:100B00000CBF012000205DF808FB00BF4DF808ED88
:100B1000FFF7EAFF34BF012000205DF808FB00BFAB
:100B20004DF808EDFFF7E0FF94BF012000205DF8CD
:100B300008FB00BF4DF808EDFFF7CEFF94BF012082
:100B400000205DF808FB00BF4DF808EDFFF7C4FF7B
:100B500034BF012000205DF808FB00BF4FEA410CC4
:100B60007FEA6C5C02D150EA013C0AD14FEA430CA7
:100B70007FEA6C5C02D152EA033C02D14FF00000E4
:100B800070474FF0010070474FEA410212F5001222
:100B900015D211D56FF47873B3EB625212D94FEAC4
:100BA000C12343F0004343EA505311F0004F23FAAE
:100BB00002F018BF404270474FF00000704750EA03
:100BC000013005D111F0004008BF6FF000407047C0
:100BD0004FF00000704700BF7BB972B90029BEBF5B
:100BE00000204FF0004106E008BF00281CBF6FF056
:100BF00000414FF0FF3000F0B5B9ADF1080C6DE9E0
:100C000004CE002909DB002B1ADB00F04DF8DDF8DB
:100C100004E0DDE9022304B07047404261EB41018A
:100C2000002B1BDB00F040F8DDF804E0DDE90223D7
:100C300004B0404261EB4101524263EB4303704711
:100C4000524263EB430300F02FF8DDF804E0DDE9E6
:100C5000022304B0404261EB41017047524263EB12
:100C6000430300F021F8DDF804E0DDE9022304B0DD
:100C7000524263EB4303704753B94AB9002908BF96
:100C800000281CBF4FF0FF314FF0FF3000F06AB971
:100C9000ADF1080C6DE904CE00F006F8DDF804E0D3
:100CA000DDE9022304B070472DE9F047089D0C46AA
:100CB000002B4ED194468C458646B2FA82F262D918
:100CC0004AB1C2F12003914020FA03F30CFA02FC6E
:100CD000194300FA02FE4FEA1C471FFA8CF6B1FBDB
:100CE000F7F44FEA1E4307FB141143EA014304FBE8
:100CF00006F199420AD91CEB030304F1FF3080F09E
:100D00001281994240F20F81023C6344591A1FFA42
:100D10008EF3B1FBF7F007FB101143EA014300FB30
:100D200006F69E420AD91CEB030300F1FF3180F066
:100D3000FC809E4240F2F980634402389B1B40EAEB
:100D4000044000211DB1D3400022C5E90032BDE8B6
:100D5000F0878B4205D90DB1C5E900010021084695
:100D6000F5E7B3FA83F1002946D1A34202D39042BA
:100D7000C0F0F080861A64EB03030120002DE6D05A
:100D8000C5E90063E3E7002A40F09080A1EB0C0482
:100D90004FEA1C481FFA8CF70121B4FBF8F64FEA22
:100DA0001E4308FB164443EA044307FB06F098423F
:100DB00008D91CEB030306F1FF3402D2984200F27B
:100DC000CD8026461C1A1FFA8EF3B4FBF8F008FB00
:100DD000104443EA044300FB07F79F4208D91CEB89
:100DE000030300F1FF3402D29F4200F2B08020469C
:100DF000DB1B40EA0640A5E7C1F120068B4022FA42
:100E000006F71F4320FA06FC04FA01F343EA0C0339
:100E1000F44000FA01F8380C4FEA1349B4FBF0FE35
:100E20001FFA87FC00FB1E4449EA04440EFB0CF940
:100E3000A14502FA01F20AD93C190EF1FF3A80F0FD
:100E40008480A14540F28180AEF1020E3C44A4EBC7
:100E500009041FFA83F9B4FBF0F300FB134449EAD9
:100E6000044403FB0CFCA44507D93C1903F1FF30F3
:100E700067D2A44565D9023B3C4443EA0E40A0FB3F
:100E80000293A4EB0C049C42CE469C4651D34ED018
:100E900055B1B8EB0E0364EB0C0404FA06F6CB4034
:100EA0001E43CC40C5E90064002150E7C2F1200395
:100EB00020FA03F10CFA02FC24FA03F394400C43E9
:100EC0004FEA1C4800FA02FE1FFA8CF7B3FBF8F059
:100ED00008FB1031230C43EA014300FB07F1994260
:100EE00008D91CEB030300F1FF362CD299422AD912
:100EF000023863445B1AA4B2B3FBF8F108FB113368
:100F000044EA034401FB07F3A34208D91CEB0404A1
:100F100001F1FF3613D2A34211D902396444E41A15
:100F200041EA004139E70446F0E6084606E7C845CD
:100F3000AED2B9EB020E63EB070C0138A8E73146DD
:100F4000EDE7034699E73046D4E7D6467FE76344AA
:100F500002384DE70646234608460FE7023E634443
:100F600030E700BF704700BF80B483B000AF786047
:100F70007B685B6903F08003802B0CBF0123002397
:100F8000DBB218460C37BD465DF8047B704780B471
:100F900083B000AF78607B685B6903F04003402B4F
:100FA0000CBF01230023DBB218460C37BD465DF8A9
:100FB000047B704780B483B000AF78607B685B6966
:100FC00003F00103012B0CBF01230023DBB2184601
:100FD0000C37BD465DF8047B704780B483B000AF2A
:100FE00078607B685B6903F00203022B0CBF01236E
:100FF0000023DBB218460C37BD465DF8047B704712
:1010000080B485B000AF78607B685B69FB60FB688B
:101010007B689B69FB60FB6800BF1437BD465DF8C9
:10102000047B704780B483B000AF786039607B6820
:101030001B6823F480623B681A437B681A6000BF18
:101040000C37BD465DF8047B704780B483B000AFB9
:1010500078607B681B6843F480727B681A6000BF0D
:101060000C37BD465DF8047B704780B483B000AF99
:1010700078607B681B6843F400727B681A6000BF6D
:101080000C37BD465DF8047B704780B483B000AF79
:1010900078607B681B6823F400627B681A6000BF7D
:1010A0000C37BD465DF8047B704780B483B000AF59
:1010B00078607B681B69DBB218460C37BD465DF86B
:1010C000047B704780B483B000AF78600B46FB7040
:1010D0007B681B6923F0FF02FB781A437B681A6167
:1010E00000BF0C37BD465DF8047B704780B500AF8C
:1010F000024803F0E5F800BF80BD00BF98EC05088A
:1011000080B584B000AF4FF00003FB603B4619464A
:10111000FA2000F0DDFE3B681B093B603B68DA0803
:10112000204B1B885B00D31A1E4AB2F9022002FB37
:1011300003F3DB0ABB603B681B091A4A12889B1A3F
:101140003A68120917490988521A02FB03F31B0B6C
:10115000144AB2F9042002FB03F39B137B60BA68C4
:101160007B681344104A13600F4B1A6813469B00A8
:10117000134480331B1207EE903AF8EEE77AC7ED7E
:10118000037A97ED037ADFED096AC7EE267AC7ED99
:10119000037AFB6807EE903AB0EE670A1037BD4657
:1011A00080BD00BF7C060020A00600200000C842D1
:1011B0002DE9B04FD0B000AF4FF00003C7F83C317D
:1011C000FFF79EFF07F58C731946F72000F080FEAD
:1011D000D7F818311B09C7F81831AC4B1B68DA1760
:1011E00098469146B8F5FA33BB6449F1FF33FB6486
:1011F000D7E91223C7E94C23D7F83421D7F8303187
:1012000003FB02F1D7F83421D7F8303102FB03F3A6
:10121000CA18D7F83031A3FB034553191D469C4B20
:10122000B3F910301BB2DA17C7F8C830C7F8CC20B2
:10123000D7E93201034603FB05F20B4604FB03F337
:1012400013440246A4FB02AB5B449B46C7E94AAB8E
:10125000C7E94AAB8E4BB3F90E301BB2DA17C7F8A9
:10126000C030C7F8C420D7F83031D7E930452A4616
:1012700002FB03F2D7F83431214601FB03F31A4491
:10128000D7F830312146A3FB0113C7F814310B46C0
:10129000C7F81031D7F81431D318C7F814314FF00C
:1012A00000004FF00001D7E944452B46590423467E
:1012B00041EAD33123465804D7E94A2314183C6441
:1012C0004B417B64D7E91034C7E94A34704BB3F91A
:1012D0000C301BB2DA17C7F8B830C7F8BC204FF093
:1012E00000004FF00001D7F8B830D9000020D7E94E
:1012F0004A231418BC634B41FB63D7E90E34C7E99A
:101300004A34D7F83421D7F8303103FB02F1D7F84B
:101310003421D7F8303102FB03F3CA18D7F8303143
:10132000A3FB0313C7F80C310B46C7F80831D7F8F5
:101330000C31D318C7F80C31554BB3F90A301BB236
:10134000DA17C7F8B030C7F8B420D7E942452B46C2
:10135000D7E92C89424602FB03F24B46214601FBAA
:1013600003F3134422464146A2FB0112C7F80421AD
:101370000A46C7F80021D7F804211344C7F80431FE
:101380004FF000004FF00001D7E940452346180A0E
:101390002B4640EA03602B4619123D4BB3F9083047
:1013A0001BB2DA17C7F8A830C7F8AC20D7F830312D
:1013B000D7E92A894A4602FB03F2D7F8343144467A
:1013C00004FB03F31A44D7F830314446A3FB04432B
:1013D000C7F8FC302346C7F8F830D7F8FC30D318EC
:1013E000C7F8FC304FF000024FF00003D7E93E8908
:1013F0004C462303444643EA1453444622038418CC
:101400003C6341EB03037B63D7E90C34C7E94C34FD
:10141000D7E94C2303F50041C7F8A410C7F8A02072
:101420001B4BDB889BB20022C7F89830C7F89C2082
:10143000D7E928452B46D7E92689424602FB03F225
:101440004B46214601FB03F3134422464146A2FBCF
:101450000112C7F8F4200A46C7F8F020D7F8F420A4
:101460001344C7F8F4304FF000024FF00003D7E9FF
:101470003C4529464A102946CB17C7E94C23D7E9F2
:101480004C23134306D14FF0000394E1A006002043
:101490007C060020D7F81831C3F580130022BB6208
:1014A000FA62D7E90A34C7E94834D7F820315B0833
:1014B000C7F89430D7F82031DB07C7F89030D7E968
:1014C0004A23D7E924452146891AC7F888102946B6
:1014D00061EB0303C7F88C30D7E9224522462B463F
:1014E000911839625B417B62D7E908232146511884
:1014F000B96129464B41FB614FF000024FF00003F8
:10150000D7E9068949468B01414643EA9163414642
:101510008A01414689183961494643EB01017961E5
:101520004FF000024FF00003D7E9048949468B00D1
:10153000414643EA917341468A00104619460346E4
:1015400022469B18BB600B462A4642EB0303FB6016
:101550004FF000024FF00003D7E9028949468B00A3
:10156000414643EA917341468A00104619460346B4
:1015700022469B18C7F880302B460A4642EB0303ED
:10158000C7F88430D7E94C23D7E92001FFF724FBC3
:1015900002460B46C7E948238B4BB3F916301BB202
:1015A000DA17BB67FA67D7E948234FF000004FF01E
:1015B0000001500B40EAC3405913D7E91E452B46A2
:1015C00000FB03F2234603FB01F313442246A2FB74
:1015D0000012C7F8EC200A46C7F8E820D7F8EC203C
:1015E0001344C7F8EC30D7E948234FF000004FF020
:1015F0000001500B40EAC3405913D7E93A452B4646
:1016000000FB03F2234603FB01F313442246A2FB33
:101610000012C7F8E4200A46C7F8E020D7F8E42013
:101620001344C7F8E4304FF000024FF00003D7E94D
:10163000384521464A0E294642EAC11229464B1630
:10164000C7E94C23604BB3F914301BB2DA173B6780
:101650007A67D7F82031D7E91C452A4602FB03F206
:10166000D7F82431214601FB03F31A44D7F820317F
:101670002146A3FB0113C7F8DC300B46C7F8D8306E
:10168000D7F8DC30D318C7F8DC304FF000024FF049
:101690000003D7E936452146CA0C294642EA4132C1
:1016A0002946CB14C7E94A23D7E94801D7E94C2397
:1016B0008418BC6641EB0303FB66D7E94A23D7E9EC
:1016C0001A45214689183966294643EB0101796696
:1016D0004FF000004FF00001D7E918452346180AE3
:1016E0002B4640EA03602B461912374BB3F91230F0
:1016F0001BB2DA17BB65FA654FF000024FF000032A
:10170000D7E916894C462301444643EA14734446FC
:10171000220184183C6041EB03037B60D7E900346D
:10172000C7E94834D7E948014FF000024FF0000301
:10173000020A42EA01620B124FF47A7303FB02F4CD
:10174000D7E9482302F0FF033B6500237B651F4B6D
:10175000D7E914894A4603FB02F20023414601FB04
:1017600003F31344194A4146A1FB0212C7F8D420DF
:101770000A46C7F8D020D7F8D4201344C7F8D4308D
:10178000134A4FF00003D7E93401FFF725FA024668
:101790000B4613462344C7F81C31D7F81C3107EE1B
:1017A000903AB8EE677ADFED0B6AC7EE267AC7ED9E
:1017B0004F7AD7F83C3107EE903AB0EE670A07F55A
:1017C000A077BD46BDE8B08F7C060020E1F505009E
:1017D000A08601000000C84280B584B000AF4FF081
:1017E0000003FB60FFF78CFCBB1C1946FD2000F0DA
:1017F00051FBB7F902309BB2BB60354B1B68A3F5B8
:1018000096337B60BB689A03324BB3F91E301B05DD
:10181000D21A304BB3F9203019467B6801FB03F331
:10182000D31A03F58043DB132A4A92F9222011468A
:101830007A6801FB02F292122649097F084679680C
:1018400000FB01F1C91201F5004101FB02F2921205
:1018500002F500121F49B1F91A1001FB02F202F55C
:101860000052921302FB03F37B607B68DB137A6800
:10187000D21302FB03F3DB11164A127E02FB03F3C1
:101880001B117A68D31A7B607B6823EAE3737B6061
:101890007B68B3F1C85FA8BF4FF0C8537B607B681B
:1018A0001B1307EE903AF8EEE77AC7ED037A97ED4F
:1018B000037ADFED096AC7EE267AC7ED037AFB6883
:1018C00007EE903AB0EE670A1037BD4680BD00BF04
:1018D000A00600207C0600200000804480B584B073
:1018E00002AF0023FB7100233B60D02000F092FA8E
:1018F0000346FB71FB791A463349344859F0FCFD25
:10190000324802F0DDFCFB79602B02D0FFF7EEFBE2
:1019100057E0B621E02000F06BFA00BF00F08BFA30
:10192000034603F00103002BF8D100F0F5FAA020E4
:1019300000F066FC082000F082FC602000F09EFCB5
:10194000082000F0BAFC012000F0D6FCF42000F0E2
:1019500061FA03463B60F22000F05CFA03461B028A
:101960001A463B6813433B603A681949174859F0D7
:10197000C3FD164802F0A4FC3B6803F0E003002B13
:1019800001D0144A00E0144A3B6803F01C03002B0A
:1019900001D0104900E010493B681B0A03F007031F
:1019A000002B01D00B4B00E00B4B00930B460B4977
:1019B000064859F0A1FD054802F082FC032000F022
:1019C000C4FC0837BD4680BDA4EC05087C0400209B
:1019D000B4EC0508D0EC0508D4EC0508D8EC0508F3
:1019E00080B582B000AF0346FB800B467B71134687
:1019F0003B712148FFF749FB4FF480611E48FFF718
:101A000011FB1D48FFF721FB00BF1B48FFF7D2FA6F
:101A10000346002BF9D0184B5B69FB88DBB21946F3
:101A20001548FFF74FFB00BF1348FFF7D6FA0346F0
:101A3000002BF9D01048FFF7E3FA7B7919460E48DE
:101A4000FFF740FB00BF0C48FFF78EFA0346002B60
:101A5000F9D03B7919460848FFF734FB00BF064828
:101A6000FFF782FA0346002BF9D00348FFF7FDFA8F
:101A700000BF0837BD4680BD0054004080B584B02B
:101A800000AF03460A46FB8013467B713348FFF7DD
:101A9000FCFA4FF480613148FFF7C4FA2F48FFF792
:101AA000D4FA00BF2D48FFF785FA0346002BF9D082
:101AB0002A4B5B69FB88DBB219462848FFF702FB1B
:101AC00000BF2648FFF789FA0346002BF9D02348C8
:101AD000FFF796FA7B7919462048FFF7F3FA00BF23
:101AE0001E48FFF741FA0346002BF9D01B48FFF7C9
:101AF000ACFA00BF1948FFF75DFA0346002BF9D096
:101B0000164B5B69FB88DBB243F00103DBB219467D
:101B10001248FFF7D7FA00BF1048FFF75EFA0346F6
:101B2000002BF9D00D48FFF76BFA00210B48FFF7A7
:101B300079FA0A48FFF799FA00BF0848FFF727FA31
:101B40000346002BF9D00548FFF7AFFA0346FB73B5
:101B5000FB7B18461037BD4680BD00BF00540040D7
:101B600090B585B000AF03463A60FB800B467B71B1
:101B70000223BB734B48FFF788FA4FF48061494852
:101B8000FFF750FA4748FFF760FA00BF4548FFF7F4
:101B900011FA0346002BF9D0424B5B69FB88DBB29C
:101BA00019464048FFF78EFA00BF3E48FFF715FA86
:101BB0000346002BF9D03B48FFF722FA7B79194600
:101BC0003848FFF77FFA00BF3648FFF7CDF90346E4
:101BD000002BF9D03348FFF738FA00BF3148FFF740
:101BE000E9F90346002BF9D02E4B5B69FB88DBB289
:101BF00043F00103DBB219462A48FFF763FA00BF3E
:101C00002848FFF7EAF90346002BF9D02548FFF7EB
:101C1000F7F90023FB7333E0FA7BBB7B013B9A426D
:101C200012DA00BF1F48FFF7B2F90346002BF9D0C4
:101C3000FC7B1C48FFF739FA03461A4604F11003EF
:101C40003B4403F8042C18E000211648FFF7EAF99A
:101C50001448FFF70AFA00BF1248FFF798F9034645
:101C6000002BF9D0FC7B0F48FFF71FFA03461A46FA
:101C700004F110033B4403F8042CFB7B0133FB739A
:101C8000FA7BBB7B9A42C7D37B7B1B021AB23B7B9E
:101C90001BB213431BB29AB23B681A8000BF1437C1
:101CA000BD4690BD0054004090B585B000AF0346DE
:101CB0003A60FB800B467B710323BB734B48FFF7F5
:101CC000E4F94FF480614948FFF7ACF94748FFF762
:101CD000BCF900BF4548FFF76DF90346002BF9D06A
:101CE000424B5B69FB88DBB219464048FFF7EAF9D3
:101CF00000BF3E48FFF771F90346002BF9D03B487F
:101D0000FFF77EF97B7919463848FFF7DBF900BF0A
:101D10003648FFF729F90346002BF9D03348FFF77F
:101D200094F900BF3148FFF745F90346002BF9D07D
:101D30002E4B5B69FB88DBB243F00103DBB2194633
:101D40002A48FFF7BFF900BF2848FFF746F90346C6
:101D5000002BF9D02548FFF753F90023FB7333E03C
:101D6000FA7BBB7B013B9A4212DA00BF1F48FFF7A8
:101D70000EF90346002BF9D0FC7B1C48FFF795F9C0
:101D800003461A4604F110033B4403F8082C18E0FC
:101D900000211648FFF746F91448FFF766F900BF1F
:101DA0001248FFF7F4F80346002BF9D0FC7B0F48EC
:101DB000FFF77BF903461A4604F110033B4403F88E
:101DC000082CFB7B0133FB73FA7BBB7B9A42C7D3A6
:101DD000BB7A1A047B7A1B0213433A7A1A433B6894
:101DE0001A6000BF1437BD4690BD00BF00540040CC
:101DF00080B582B000AF03460A46FB711346BB7143
:101E0000BA79FB791946EC20FFF7EAFD00BF0837E5
:101E1000BD4680BD80B584B000AF0346FB71FB7941
:101E20001946EC20FFF72AFE0346FB73FB7B18469E
:101E30001037BD4680BD80B582B000AFF320FFF7FC
:101E4000E9FF034603F00903FB71FB7918460837E5
:101E5000BD4680BD80B582B000AF03463960FB71DE
:101E6000FB793A681946EC20FFF77AFE00BF083785
:101E7000BD4680BD80B582B000AF03463960FB71BE
:101E8000FB793A681946EC20FFF76AFE00BF083775
:101E9000BD4680BD80B582B000AF03463960FB719E
:101EA000FB793A681946EC20FFF75AFE3B681B881D
:101EB0001B0A9BB21AB23B681B881B021BB213435E
:101EC0001BB29AB23B681A8000BF0837BD4680BD7E
:101ED00080B582B000AF03463960FB71FB793A6888
:101EE0001946EC20FFF7E0FE3B681B681B0CDAB2DA
:101EF0003B681B6803F47F431A433B681B681B0461
:101F000003F47F03134323F07F423B681A6000BF52
:101F10000837BD4680BD000098B500AF98498820BD
:101F2000FFF798FF964B1B881A469649964859F03A
:101F3000E3FA954802F0C4F994498A20FFF79AFF22
:101F40008F4BB3F902301A4691498F4859F0D4FAB1
:101F50008D4802F0B5F98F498C20FFF78BFF884B35
:101F6000B3F904301A468C49874859F0C5FA8648B7
:101F700002F0A6F989498E20FFF76CFF804BDB88C1
:101F80001A468749804859F0B7FA7F4802F098F915
:101F900084499020FFF76EFF794BB3F908301A4659
:101FA0008149794859F0A8FA774802F089F97F49C0
:101FB0009220FFF75FFF724BB3F90A301A467C4953
:101FC000714859F099FA704802F07AF979499420E9
:101FD000FFF750FF6A4BB3F90C301A4676496A484E
:101FE00059F08AFA684802F06BF974499620FFF7B5
:101FF00041FF634BB3F90E301A467149624859F0FC
:102000007BFA614802F05CF96E499820FFF732FFD5
:102010005B4BB3F910301A466B495B4859F06CFAC8
:10202000594802F04DF969499A20FFF723FF544BB4
:10203000B3F912301A466649534859F05DFA5248CE
:1020400002F03EF963499C20FFF714FF4C4BB3F9B3
:1020500014301A4660494C4859F04EFA4A4802F08A
:102060002FF95E499E20FFF705FF454BB3F9163067
:102070001A465B49444859F03FFA434802F020F9B8
:10208000A120FFF7C7FE03461A463D4B1A763C4B8C
:102090001B7E1A4653493C4859F02EFA3A4802F042
:1020A0000FF95149E120FFF7E5FE354BB3F91A303E
:1020B0001A464E49344859F01FFA334802F000F9E5
:1020C000E320FFF7A7FE03461A462D4B1A772C4B49
:1020D0001B7F1A4646492C4859F00EFA2A4802F04E
:1020E000EFF8E420FFF796FE03461B011CB2E52043
:1020F000FFF790FE03461BB203F00F031BB223430E
:102100001AB21F4BDA831E4BB3F91E301A463949F7
:102110001D4859F0F1F91C4802F0D2F8E620FFF70B
:1021200079FE03461B011CB2E520FFF773FE034650
:102130001B09DBB21BB223431AB2114B1A84104B9A
:10214000B3F920301A462C490F4859F0D5F90E48FA
:1021500002F0B6F8E720FFF75DFE03465AB2084BDF
:1021600083F82220064B93F922301A462349064869
:1021700059F0C2F9044802F0A3F800BF98BD00BFAF
:102180007C06002008ED05087C0400207E06002067
:1021900018ED05088006002028ED050882060020BD
:1021A00038ED05088406002048ED05088606002065
:1021B00058ED05088806002068ED05088A0600200D
:1021C00078ED05088C06002088ED05088E060020B5
:1021D00098ED050890060020A8ED0508920600205D
:1021E000B8ED0508C8ED050896060020D8ED0508ED
:1021F000E8ED0508F8ED050808EE050818EE0508F5
:1022000080B584B000AF0346FB71F520FFF702FEF6
:10221000034603F01F03FB7397F9073023F01F03F6
:102220005AB297F90F3013435BB2FB73FB7B19462D
:10223000F520FFF7DDFD00BF1037BD4680BD80B53E
:1022400084B000AF0346FB71F520FFF7E3FD0346C2
:1022500023F01C03FB7397F9073003F01C035AB2F9
:1022600097F90F3013435BB2FB73FB7B1946F520E4
:10227000FFF7BEFD00BF1037BD4680BD80B584B0FE
:1022800000AF0346FB71F420FFF7C4FD034603F0E3
:102290001F03FB7397F9073023F01F035AB297F916
:1022A0000F3013435BB2FB73FB7B1946F420FFF73F
:1022B0009FFD00BF1037BD4680BD80B584B000AF24
:1022C0000346FB71F420FFF7A5FD034623F01C0332
:1022D000FB7397F9073003F01C035AB297F90F30DC
:1022E00013435BB2FB73FB7B1946F420FFF780FDC1
:1022F00000BF1037BD4680BD80B584B000AF034637
:10230000FB71F220FFF786FD034623F00703FB7302
:1023100097F9073003F007035AB297F90F301343C8
:102320005BB2FB73FB7B1946F220FFF761FDF420E3
:10233000FFF770FD0346FB73FB7B1946F420FFF7A4
:1023400057FD00BF1037BD4680BD80B584B000AFDB
:102350000346FB71F420FFF75DFD034623F0030302
:10236000FB7397F9073003F003035AB297F90F3064
:1023700013435BB2FB73FB7B1946F420FFF738FD78
:1023800000BF1037BD4680BD80B500AF00F024F817
:102390004FF4486300220C490C483EF0B5F80C4855
:1023A0003EF070F80A4B4FF4A0721A80084BF022EE
:1023B0005A80074B074A5A61054B044ADA600448C1
:1023C0003EF0BEF800BF80BD10070020F4060020DC
:1023D000A4060020F123000880B500AF034B1B6862
:1023E000184603F0DEF900BF80BD00BFF8200020D2
:1023F00090B58BB002AFF860B9607A60234B186873
:10240000BB68B3F9003099B2BB68B3F902309AB235
:10241000BB68B3F904309CB2BB68B3F906309BB219
:102420000093234603F06CFA7B68FB61BB68B3F949
:1024300002307B611BE0BB68B3F90030BB610CE08C
:10244000124B1B680122F969184603F08FFAFB69E9
:102450000233FB61BB690133BB61BB68B3F9043074
:102460001A46BB699342EBDD7B6901337B61BB6834
:10247000B3F906301A467B699342DCDDF8683EF01A
:10248000C7F900BF2437BD4690BD00BFF82000202B
:1024900080B500AF00F018F808483EF0F0F9074B9F
:1024A00001221A70054B064A5A6004483EF00AFAA7
:1024B0000346044A136000BF80BD00BF1420002003
:1024C000FD24000810200020B0B586B000AF094BF5
:1024D0003C461D460FCD0FC495E8030084E8030079
:1024E0003B461A461421044858F012F800BF18372A
:1024F000BD46B0BD28EE05084020002080B582B062
:1025000000AF7860396000F021F80346002B07D057
:102510000C490D4800F036F83B6801229A7302E03E
:102520003B6800229A73084BB3F900203B681A807D
:10253000044BB3F900203B685A8000BF0837BD4602
:1025400080BD00BF362000203420002080B500AFC1
:102550000B4858F00BF80A4B002283F82820084B50
:1025600093F87530DBB2012B05D0054B93F875302D
:10257000DBB2022B01D1012300E00023184680BD0D
:102580004020002080B584B000AF7860396007F14A
:102590000803084A0849184657F095FCBB681AB268
:1025A0007B681A80FB681AB23B681A8000BF10373C
:1025B000BD4680BD702000205820002080B485B02A
:1025C00000AF78607B6803F00703FB600C4BDB68AF
:1025D000BB60BA684FF6FF031340BB60FB681A028A
:1025E000BB68134343F0BF6343F40033BB60044A4A
:1025F000BB68D36000BF1437BD465DF8047B7047ED
:1026000000ED00E080B400AF044BDB681B0A03F070
:1026100007031846BD465DF8047B704700ED00E0F7
:1026200080B483B000AF0346FB7197F90730002BED
:102630000BDBFB7903F01F02074997F907305B09B1
:10264000012000FA02F241F8232000BF0C37BD46FA
:102650005DF8047B704700BF00E100E080B483B008
:1026600000AF03463960FB7197F90730002B0ADB96
:102670003B68DAB20C4997F907301201D2B20B4429
:1026800083F800230AE03B68DAB20849FB7903F0DB
:102690000F03043B1201D2B20B441A7600BF0C3771
:1026A000BD465DF8047B704700E100E000ED00E00E
:1026B00080B489B000AFF860B9607A60FB6803F05D
:1026C0000703FB61FB69C3F10703042B28BF042345
:1026D000BB61FB690433062B02D9FB69033B00E0B5
:1026E00000237B614FF0FF32BB6902FA03F3DA4348
:1026F000BB681A407B699A404FF0FF317B6901FA51
:1027000003F3D9437B680B40134318462437BD4677
:102710005DF8047B7047000080B582B000AF786040
:102720007B68013BB3F1807F01D301230FE00A4AAC
:102730007B68013B53600F214FF0FF30FFF78EFFA6
:10274000054B00229A60044B07221A6000231846AA
:102750000837BD4680BD00BF10E000E080B485B002
:1027600000AFF860B9607A600D4ABB6813441B780B
:102770001A46FB6813441B6823F0C0020849BB6873
:102780000B441B781946FB680B4419467B681343BE
:102790000B6000BF1437BD465DF8047B704700BF77
:1027A000C4FB050880B485B000AFF860B9607A60FA
:1027B0000D4ABB6813441B781A46FB6813441B6818
:1027C00023F490720849BB680B441B781946FB68D8
:1027D0000B4419467B6813430B6000BF1437BD469A
:1027E0005DF8047B704700BFC4FB050880B485B06A
:1027F00000AFF860B9607A600D4ABB6813441B787B
:102800001A46FB6813441B6823F400720849BB682E
:102810000B441B781946FB680B4419467B6813432D
:102820000B6000BF1437BD465DF8047B704700BFE6
:10283000C4FB050880B485B000AFF860B9607A6069
:102840000D4ABB6813441B781A46FB6813441B6887
:1028500023F480620849BB680B441B781946FB6867
:102860000B4419467B6813430B6000BF1437BD4609
:102870005DF8047B704700BFC4FB050880B485B0D9
:1028800000AFF860B9607A600D4ABB6813441B78EA
:102890001A46FB6813441B6823F4C0520849BB68FE
:1028A0000B441B781946FB680B4419467B6813439D
:1028B0000B6000BF1437BD465DF8047B704700BF56
:1028C000C4FB050880B485B000AFF860B9607A60D9
:1028D0000D4ABB6813441B781A46FB6813441B68F7
:1028E00023F4C0420849BB680B441B781946FB68B7
:1028F0000B4419467B6813430B6000BF1437BD4679
:102900005DF8047B704700BFC4FB050880B485B048
:1029100000AFF860B9607A600D4ABB6813441B7859
:102920001A46FB6813441B6823F440320849BB680D
:102930000B441B781946FB680B4419467B6813430C
:102940000B6000BF1437BD465DF8047B704700BFC5
:10295000C4FB050880B485B000AFF860B9607A6048
:102960000D4ABB6813441B781A46FB6813441B6866
:1029700023F060620849BB680B441B781946FB686A
:102980000B4419467B6813430B6000BF1437BD46E8
:102990005DF8047B704700BFC4FB050880B483B0BA
:1029A00000AF786039600C4A3B6813441B781A46C4
:1029B0007B6813445B6908493A680A4412781146F7
:1029C0007A680A4423F00403536100BF0C37BD4604
:1029D0005DF8047B704700BFC4FB050880B483B07A
:1029E00000AF78607B681B6823F080027B681A6008
:1029F00000BF0C37BD465DF8047B704780B483B0E0
:102A000000AF78607B681B6823F040027B681A6027
:102A100000BF0C37BD465DF8047B704780B483B0BF
:102A200000AF786039607B68DB6823F0FE023B68AA
:102A30001A437B68DA6000BF0C37BD465DF8047B43
:102A4000704780B483B000AF78607B68DB6823F0A8
:102A500001027B68DA6000BF0C37BD465DF8047B7D
:102A60007047000080B400AF054B1B68044A43F474
:102A70008033136000BFBD465DF8047B704700BF24
:102A80000038024080B400AF074B1B6803F40033EA
:102A9000B3F5003F0CBF01230023DBB21846BD464F
:102AA0005DF8047B704700BF0038024080B400AF7F
:102AB000054B1B6F044A43F00103136700BFBD467B
:102AC0005DF8047B704700BF0038024080B400AF5F
:102AD000064B1B6F03F00203022B0CBF01230023E4
:102AE000DBB21846BD465DF8047B704700380240F3
:102AF00080B483B000AF7860064B9B6823F003027C
:102B000004497B6813438B6000BF0C37BD465DF8FA
:102B1000047B70470038024080B400AF044B9B68D0
:102B200003F00C031846BD465DF8047B704700BFF8
:102B30000038024080B483B000AF7860064B9B68D9
:102B400023F0F00204497B6813438B6000BF0C370D
:102B5000BD465DF8047B70470038024080B483B006
:102B600000AF7860064B9B6823F4E05204497B6811
:102B700013438B6000BF0C37BD465DF8047B704784
:102B80000038024080B483B000AF7860064B9B6889
:102B900023F4604204497B6813438B6000BF0C3709
:102BA000BD465DF8047B70470038024080B483B0B6
:102BB00000AF7860064B1B6F23F4407204497B68BA
:102BC00013430B6700BF0C37BD465DF8047B7047AD
:102BD0000038024080B400AF044B1B6F03F4407315
:102BE0001846BD465DF8047B704700BF00380240C0
:102BF00080B400AF054B1B6F044A43F400431367D6
:102C000000BFBD465DF8047B704700BF003802403E
:102C100080B400AF054B1B6F044A43F48033136745
:102C200000BFBD465DF8047B704700BF003802401E
:102C300080B400AF054B1B6F044A23F48033136745
:102C400000BFBD465DF8047B704700BF00380240FE
:102C500080B483B000AF7860074BD3F88C3023F09A
:102C6000807205497B681343C1F88C3000BF0C3774
:102C7000BD465DF8047B70470038024080B400AF69
:102C8000054B1B68044A43F08073136000BFBD46C8
:102C90005DF8047B704700BF0038024080B400AF8D
:102CA000074B1B6803F00073B3F1007F0CBF0123D7
:102CB0000023DBB21846BD465DF8047B704700BFB9
:102CC0000038024080B485B000AFF860B9607A6027
:102CD0003B600D4B5A680D4B1340F968BA681143BD
:102CE0007A6892010A43084913434B60064B5B68BC
:102CF00023F4403204493B6813434B6000BF143750
:102D0000BD465DF8047B7047003802400080BFFF7D
:102D100080B485B000AF7860084B1A6B07497B68B8
:102D200013430B63054B1A6B7B681340FB60FB6816
:102D300000BF1437BD465DF8047B70470038024081
:102D400080B485B000AF7860084B1A6C07497B6887
:102D500013430B64054B1A6C7B681340FB60FB68E4
:102D600000BF1437BD465DF8047B70470038024051
:102D700080B483B000AF7860074B1A6C7B68134057
:102D80007A689A420CBF01230023DBB218460C3745
:102D9000BD465DF8047B70470038024080B483B0C4
:102DA00000AF7860064B1A6C7B68DB430449134024
:102DB0000B6400BF0C37BD465DF8047B704700BF55
:102DC0000038024080B485B000AF7860084B5A6C80
:102DD00007497B6813434B64054B5A6C7B6813406F
:102DE000FB60FB6800BF1437BD465DF8047B70478D
:102DF0000038024080B487B000AF78603960174A6D
:102E00003B68DBB2023352F823203B681B0CDB43E8
:102E100002EA03013B681B0C3B613B6993FAA3F395
:102E2000FB60FB687B617B69002B01D1202303E001
:102E30007B69B3FA83F3DBB21A467B6803FA02F2CA
:102E400006483B68DBB20A43023340F8232000BF48
:102E50001C37BD465DF8047B704700BF0038014059
:102E600080B483B000AF7860064B1B6823F0070284
:102E700004497B6813430B6000BF0C37BD465DF807
:102E8000047B7047003C024080B400AF044B1B68D9
:102E900003F007031846BD465DF8047B704700BF8A
:102EA000003C024080B483B000AF7860064B1B68E2
:102EB00023F4404204497B6813430B6000BF0C3786
:102EC000BD465DF8047B70470070004080B400AFE1
:102ED000054B1B68044A43F48073136000BFBD4672
:102EE0005DF8047B704700BF0070004080B400AF05
:102EF000074B1B6803F48073B3F5807F0CBF01237D
:102F00000023DBB21846BD465DF8047B704700BF66
:102F10000070004080B400AF074B5B6803F480434F
:102F2000B3F5804F0CBF01230023DBB21846BD462A
:102F30005DF8047B704700BF0070004080B483B030
:102F400000AF786039607B681B6923F4FE023B6840
:102F50001B041A437B681A6100BF0C37BD465DF83D
:102F6000047B704780B483B000AF786039607B68C1
:102F70001B6923F4FF4323F07F033A681A437B68FD
:102F80001A6100BF0C37BD465DF8047B704780B402
:102F900083B000AF78607B681B6803F48003184639
:102FA0000C37BD465DF8047B704780B483B000AF3A
:102FB00078607B681B681B0C03F03F0318460C37D6
:102FC000BD465DF8047B704780B483B000AF786085
:102FD0007B681B681B0A03F07F0318460C37BD464D
:102FE0005DF8047B704780B483B000AF78607B6885
:102FF0001B6803F07F0318460C37BD465DF8047B61
:10300000704780B483B000AF78607B685B681B0C4E
:10301000DBB218460C37BD465DF8047B704780B4C0
:1030200083B000AF78607B685B681B0A03F01F0306
:1030300018460C37BD465DF8047B704780B483B0FA
:1030400000AF78607B685B6803F03F0318460C377D
:10305000BD465DF8047B704780B487B000AFF86070
:10306000B9607A60FB6850337B61BB689B007A690A
:1030700013447B617B697A681A6000BF1C37BD46C8
:103080005DF8047B704780B485B000AF786039602C
:103090007B685033FB603B689B00FA681344FB601D
:1030A000FB681B6818461437BD465DF8047B704703
:1030B00080B483B000AF78607B681B6843F0400247
:1030C0007B681A6000BF0C37BD465DF8047B704713
:1030D00080B483B000AF786039607B685B6823F0B0
:1030E00010023B681A437B685A6000BF0C37BD462C
:1030F0005DF8047B704780B483B000AF78607B6874
:103100001B6843F001027B681A6000BF0C37BD46A4
:103110005DF8047B704780B483B000AF78607B6853
:103120001B6823F080027B681A6000BF0C37BD4625
:103130005DF8047B7047000080B485B000AF786014
:1031400039603B68012B1CD03B68042B17D03B68CF
:10315000102B12D03B68402B0DD03B68B3F5807F1D
:1031600007D03B68B3F5806F01D105230AE0062341
:1031700008E0042306E0032304E0022302E0012325
:1031800000E00023FB737B6818331946FB7B0B4A76
:10319000D35C0B44BB60BB681A68FB7B0849CB5C03
:1031A000194604238B40DB431A40BB681A6000BFFA
:1031B0001437BD465DF8047B704700BFCCFB0508A3
:1031C000D4FB050880B485B000AF786039603B68F7
:1031D000012B1CD03B68042B17D03B68102B12D05E
:1031E0003B68402B0DD03B68B3F5807F07D03B6830
:1031F000B3F5806F01D105230AE0062308E004231C
:1032000006E0032304E0022302E0012300E00023A0
:10321000FB737B6818331946FB7B0A4AD35C0B446B
:10322000BB60BB681A68FB7B0749CB5C1946082367
:103230008B401A43BB681A6000BF1437BD465DF867
:10324000047B7047CCFB0508D4FB050880B483B031
:1032500000AF786039607B689B6823F4804323F07B
:1032600007033A681A437B689A6000BF0C37BD4673
:103270005DF8047B704780B483B000AF786039603C
:103280007B685B6823F070023B681A437B685A6076
:1032900000BF0C37BD465DF8047B704780B483B037
:1032A00000AF78607B689B6823F080027B689A603F
:1032B00000BF0C37BD465DF8047B704780B483B017
:1032C00000AF78607B686FF001021A6100BF0C37B5
:1032D000BD465DF8047B704780B483B000AF786072
:1032E0007B68DB6843F001027B68DA6000BF0C3763
:1032F000BD465DF8047B704780B483B000AF786052
:103300007B68DB6843F400527B68DA6000BF0C37EF
:10331000BD465DF8047B704780B483B000AF786031
:103320007B681B6923F490427B681A617B685B6948
:1033300023F02A027B685A6100BF0C37BD465DF856
:10334000047B704780B483B000AF78607B681B68F3
:1033500003F04003402B0CBF01230023DBB21846CF
:103360000C37BD465DF8047B704780B483B000AF76
:1033700078600B46FB70FA787B685A6000BF0C37A8
:10338000BD465DF8047B704780B48BB000AFF86039
:10339000B9607A60FB681A68BB687B617B6993FAE5
:1033A000A3F33B613B69BB61BB69002B01D12023C7
:1033B00003E0BB69B3FA83F3DBB25B00032101FADC
:1033C00003F3DB431A40BB683B623B6A93FAA3F307
:1033D000FB61FB697B627B6A002B01D1202303E048
:1033E0007B6AB3FA83F3DBB25B00796801FA03F31B
:1033F0001A43FB681A6000BF2C37BD465DF8047B9A
:10340000704780B48BB000AFF860B9607A60FB6839
:10341000DA68BB687B617B6993FAA3F33B613B6924
:10342000BB61BB69002B01D1202303E0BB69B3FA68
:1034300083F3DBB25B00032101FA03F3DB431A40A1
:10344000BB683B623B6A93FAA3F3FB61FB697B6257
:103450007B6A002B01D1202303E07B6AB3FA83F35C
:10346000DBB25B00796801FA03F31A43FB68DA60A8
:1034700000BF2C37BD465DF8047B704780B483B035
:1034800000AF786039607B683A689A6100BF0C379A
:10349000BD465DF8047B704780B582B000AF7860B0
:1034A00078680BF0F6FF00BF0837BD4680BD80B4DA
:1034B00083B000AF78607B681B0A18460C37BD46A6
:1034C0005DF8047B704780B483B000AF78607B68A0
:1034D00023F0FF0318460C37BD465DF8047B7047A8
:1034E00080B58EB000AFF860B9607A6000233B63AE
:1034F0005DE000237B630023BB62BA68FB68D31ADC
:103500005A08FB6813441846FFF7D1FF386307F1E8
:10351000140004230622396B54F02AFF3B7D1B065E
:103520007A6B13437B637B7D1B047A6B13437B6352
:10353000BB7D1B027A6B13437B63FB7D1A467B6B5F
:1035400013437B633B6B591C07F1140004230622D1
:1035500054F00EFF3B7D1B06BA6A1343BB627B7DB2
:103560001B04BA6A1343BB62BB7D1B02BA6A1343D6
:10357000BB62FB7D1A46BB6A1343BB627A6B7B68F6
:103580009A4207D27A68BB6A9A4203D23B6B1B020B
:10359000FB6010E07A6B7B689A4204D23B6B01338C
:1035A0001B02FB6003E03B6B013B1B02BB60FA6844
:1035B000BB689A429DD90623FB62F868FFF783FF38
:1035C000786225E007F114000423FA6A396B54F09D
:1035D000CFFE3B7D1B067A6B13437B637B7D1B0415
:1035E0007A6B13437B63BB7D1B027A6B13437B6354
:1035F000FB7D1A467B6B13437B637A6B7B689A4235
:1036000003D37A6AFB6A134407E0FB6A1033FB6258
:10361000FB6AFF2BD6D94FF0FF3318463837BD462B
:1036200080BD80B58EB000AFF860B9607A603B6055
:1036300007F1140324220021184657F0DCFFFB6831
:10364000A3F26C73BB62BB68013B7B627B683B622D
:103650003B68FB613B6CBB617B6C7B6107F11403D6
:10366000184658F0B7F802460B4613461846383746
:10367000BD4680BDB0B59CB006AF786039607E4B6A
:1036800007F10C041D460FCD0FC40FCD0FC495E8F4
:103690000F0084E80F0040F2B2737B6501233B65A5
:1036A0000123BB6438E07B6D03F00303002B1DD1C5
:1036B0007A6D724B83FB02135911D317CB1A642115
:1036C00001FB03F3D31A002B0DD17A6D6B4B83FBF7
:1036D0000213D911D317CB1A4FF4C87101FB03F3AE
:1036E000D31A002B02D14FF4B77301E040F26D13EF
:1036F0007B647B6C624A02FB03F31A467B6893424D
:103700000FD37B6C5E4A02FB03F31A467B689B1A5D
:103710007B607B6D01337B657B685A4A9342C2D8DC
:1037200000E000BF7B6D03F00303002B33D17A6D03
:10373000524B83FB02135911D317CB1A642101FB9F
:1037400003F3D31A002B0DD17A6D4C4B83FB02137C
:10375000D911D317CB1A4FF4C87101FB03F3D31A55
:10376000002B18D11D233B6115E03B6D013B9B00F5
:1037700058333B4453F84C3C414A02FB03F31A468E
:103780007B689B1A7B603B6D01333B653B6D0C2B6B
:1037900001DD01233B653B6D013B9B0058333B44FE
:1037A00053F84C3C364A02FB03F31A467B689342BB
:1037B000DBD27B68344AA2FB03231A0CBB6C134494
:1037C000BB647B68304AA2FB0312120C2C4901FB3C
:1037D00002F29B1A7B607B682C4AA2FB0323DB0A64
:1037E000FB647B68294AA2FB0312D20A4FF4616191
:1037F00001FB02F29B1A7B607B68254AA2FB032334
:103800005B093B647968224BA3FB01235A091346E9
:103810001B019B1A9B00CA1AFA631E4A07F1080390
:103820001268114619800233120C1A70FB6C0B2BB4
:1038300008DD50233B72FB6C0C2B08DDFB6C0C3B52
:10384000FB6404E0FB6C002B01D10C23FB6407F14B
:1038500008030493FB6B03933B6C0293FB6C019393
:10386000BB6C00933B6D7A6D0B49386857F044FE92
:1038700000BF5837BD46B0BD74EE05081F85EB513B
:10388000805101007F33E10107452EC2C5B3A291EB
:1038900089888888A4EE050840EE050880B485B0C4
:1038A00000AF87ED010AD7ED017A9FED0E7A67EE42
:1038B000877AFDEEE77A17EE903AFB60FB68002B03
:1038C00001DA002308E0FB68B3F5803F02DB4FF626
:1038D000FF7301E0FB689BB218461437BD465DF8E4
:1038E000047B70470000C84280B483B000AF034639
:1038F000FB80FB8807EE903AF8EEE77A9FED067AB8
:10390000C7EE876AF0EE667AB0EE670A0C37BD46FE
:103910005DF8047B704700BF0000C84280B485B0EA
:1039200000AF87ED010AD7ED017AB2EE047A67EEB7
:10393000877AFDEEE77A17EE903AFB60FB68002B82
:1039400001DA002308E0FB68B3F5803F02DB4FF6A5
:10395000FF7301E0FB689BB218461437BD465DF863
:10396000047B704780B483B000AF0346FB80FB88C4
:1039700007EE903AF8EEE77AB2EE047AC7EE876A7D
:10398000F0EE667AB0EE670A0C37BD465DF8047B50
:103990007047000090B593B002AFFDF7B1FBF0EEB9
:1039A000407AB0EE670AFFF779FF03467B87FDF7A1
:1039B00013FFF0EE407AB0EE670AFFF76FFF0346A1
:1039C0003B87FDF7F5FBB0EE407ADFEDB16AC7EE5D
:1039D000267AB0EE670AFFF7A1FF0346FB86AD48E3
:1039E000FFF701FB0346DBB21B11DBB203F00F0351
:1039F000DBB21A46920013445B00DCB2A548FFF725
:103A0000F2FA0346DBB203F00F03DBB2234487F87C
:103A10003530A048FFF7D8FA0346DBB21B11DBB202
:103A200003F00F03DBB21A46920013445B00DCB2D2
:103A30009848FFF7C9FA0346DBB203F00F03DBB285
:103A4000234487F834309348FFF7AFFA0346DBB2DC
:103A50001B11DBB203F00F03DBB21A4692001344D2
:103A60005B00DCB28B48FFF7A0FA0346DBB203F041
:103A70000F03DBB2234487F83F308648FFF787FA0D
:103A80000346B3F5800F08D197F83F300B2B04D8CD
:103A900097F83F300C3387F83F307E48FFF7CEFA77
:103AA0000346DBB21B11DBB203F00F03DBB21A4695
:103AB000920013445B00DCB27648FFF7BFFA03467E
:103AC000DBB203F00F03DBB2234487F833307148D5
:103AD000FFF7A5FA0346DBB21B11DBB203F00F03BD
:103AE000DBB21A46920013445B00DCB26948FFF770
:103AF00096FA0346DBB203F00F03DBB2234487F8E8
:103B000032306448FFF77DFA0346DBB21B11DBB2AB
:103B100003F00F03DBB21A46920013445B00DCB2E1
:103B20005C48FFF76EFA0346DBB203F00F03DBB22B
:103B30002344DBB203F5FA63FB6297F8321097F87F
:103B4000330097F83F4097F8343097F835200192CA
:103B5000009323460246F86AFFF763FDB8627B8F45
:103B60001B0A9BB2DBB23B717B8FDBB27B713B8F5D
:103B70001B0A9BB2DBB2BB713B8FDBB2FB71FB8ECE
:103B80001B0A9BB2DBB23B72FB8EDBB27B72BB6A61
:103B90001B0EDBB2BB72BB6A1B0CDBB2FB72BB6AD7
:103BA0001B0ADBB23B73BB6ADBB27B733A4B1B680D
:103BB0001846FFF77CFC7862374B1B681846FFF706
:103BC00082FC3862344B1B6803F10A023B6A03F53E
:103BD00080739A4204D33B6A03F580732E4A1360C4
:103BE0002D4B1B68C3F30B03002B04D12A4B1B681E
:103BF000184654F0E3FA284B1B681846FFF757FCA9
:103C00007862254B1B681846FFF75DFC3862224B33
:103C10001B68391D0A22184654F026FB1F4800F085
:103C20004FFB4FF480730022796A1D4854F0A0FBCB
:103C3000002387F83E30E7E097F83E301B011A4634
:103C40003B6A1344FB61FA691649174857F054FC64
:103C5000154800F035FB002387F83D3032E097F837
:103C60003E301A0197F83D3013440D4AD35C1A4692
:103C70000E490D4857F040FC0B4800F021FB97F827
:103C80003D30072B16D10A4800F01AFB15E000BFA3
:103C900000007A4400280040C8200020A8EE050853
:103CA000B4E70020C0EE05087C040020C8EE05083B
:103CB000D0EE0508614800F003FB97F83D30013372
:103CC00087F83D3097F83D300F2BC8D95C4800F09D
:103CD000F7FA002387F83C3089E097F83E301A0164
:103CE00097F83C301344574AD35C1B029BB297F8B9
:103CF0003E20110197F83C200A44013251498A5C68
:103D000013437B837B8B4FF6FF72934261D097F80E
:103D10003C30062B39D100233B6197F83E301A0125
:103D200097F83C301344474AD35C1B063A69134367
:103D30003B6197F83E301A0197F83C301344013349
:103D4000404AD35C1B043A6913433B6197F83E3009
:103D50001A0197F83C30134402333A4AD35C1B02F1
:103D60003A6913433B6197F83E301A0197F83C30AB
:103D700013440333334AD35C1A463B6913433B6114
:103D800031493869FFF776FC29E097F83C30042B7D
:103D90000FD17B8B1846FFF7E5FD87ED050A7869A3
:103DA000FCF7EAFB02460B462849274857F0A4FBDC
:103DB00015E07B8B1846FFF797FD87ED050A7869BC
:103DC000FCF7DAFB02460B4620491F4857F094FBEC
:103DD00005E07B8B1A461E491B4857F08DFB1A489D
:103DE00000F06EFA97F83C30023387F83C3097F8D1
:103DF0003C30062B7FF671AF164800F061FA97F859
:103E00003E30013387F83E3097F83E300F2B7FF677
:103E100013AF104800F054FA0F4B1B6810330E4AD2
:103E200013600D4B1B680D4A934202D90A4B0022C6
:103E30001A6000BF4437BD4690BD00BFD4EE0508F0
:103E4000D8EE0508B4E700207C040020DCEE05086D
:103E5000C8EE0508E4EE0508C8200020FEFF7F003C
:103E600090B5ADF5077D02AF07F50473A3F50373B5
:103E700018607748FFF7B7F80346DBB21B11DBB2D7
:103E800003F00F03DBB21A46920013445B00DCB26E
:103E90006F48FFF7A8F80346DBB203F00F03DBB26D
:103EA000234487F80F326A48FFF78EF80346DBB2E7
:103EB0001B11DBB203F00F03DBB21A46920013446E
:103EC0005B00DCB26248FFF77FF80346DBB203F029
:103ED0000F03DBB2234487F80E325D48FFF765F825
:103EE0000346DBB21B11DBB203F00F03DBB21A4651
:103EF000920013445B00DCB25548FFF756F80346C6
:103F0000DBB203F00F03DBB2234487F80D325048D5
:103F1000FFF794F80346DBB21B11DBB203F00F038B
:103F2000DBB21A46920013445B00DCB24848FFF74C
:103F300085F80346DBB203F00F03DBB2234487F8B6
:103F40000C324348FFF76BF80346DBB21B11DBB2C0
:103F500003F00F03DBB21A46920013445B00DCB29D
:103F60003B48FFF75CF80346DBB203F00F03DBB21C
:103F7000234487F80B323648FFF743F80346DBB299
:103F80001B11DBB203F00F03DBB21A46920013449D
:103F90005B00DCB22E48FFF734F80346DBB203F0D7
:103FA0000F03DBB22344DBB203F5FA63A7F8083250
:103FB00097F80D2297F80E1297F80F3207F10800C4
:103FC00000930B46234957F097FA234B1B6807F1E0
:103FD0000802114618464BF0C5FE97F80C2297F8D8
:103FE0000B12B7F8083207F1080000930B461B4983
:103FF00057F082FA1A4B1B6807F10802114618465F
:104000004BF0B0FE1248FEF7C2FF0346002B06D16C
:10401000144B1B68144918464BF0A4FE13E00C48DF
:10402000FEF7B5FF0346B3F5800F06D10D4B1B68B5
:104030000E4918464BF096FE05E00A4B1B680C49EA
:1040400018464BF08FFE00BF07F50577BD4690BDC3
:1040500000280040E8EE050834210020F8EE0508AD
:104060003821002014210020A4EE050808EF0508DF
:104070000CEF050880B584B000AF78600B4B1B686F
:104080000021184634F0F5F8F860084B1B687A6890
:1040900012B2F968184634F033F9044B1B6818461D
:1040A00034F04CF800BF1037BD4680BD44210020DD
:1040B00080B584B000AF78600B4B1B6800211846B8
:1040C00034F0D7F8F860084B1B687A6812B2F968C8
:1040D000184634F015F9044B1B68184634F02EF8D6
:1040E00000BF1037BD4680BD6821002080B584B078
:1040F00000AF78600B4B1B680021184634F0B9F80C
:10410000F860084B1B687A6812B2F968184634F0F8
:10411000F7F8044B1B68184634F010F800BF10374E
:10412000BD4680BD8C21002080B500AFFCF7E8FFC4
:10413000F0EE407A514BC3ED007AFDF739F8F0EE1E
:10414000407A4F4BC3ED007AFDF746FBF0EE407A24
:104150004C4BC3ED007A494B1B681846FCF70CFA30
:1041600002460B464849494857F0C6F9484B1B6878
:10417000464918464BF0F6FD404B1B681846FCF7C5
:10418000FBF902460B464349404857F0B5F9424B0C
:104190001B683E4918464BF0E5FD3A4B1B68184634
:1041A000FCF7EAF902460B463C49384857F0A4F9B7
:1041B0003B4B1B68354918464BF0D4FD314B1B680F
:1041C0001846FCF7D9F902460B4636492F4857F0F6
:1041D00093F9354B1B682D4918464BF0C3FD284B0E
:1041E000D3ED007A9FED317AC7EE876A16EE900A1A
:1041F000FCF7C2F902460B462D49244857F07CF9DA
:104200002C4B1B68214918464BF0ACFD1C4BD3EDE1
:10421000007A9FED267AC7EE876A16EE900AFCF7C1
:10422000ABF902460B462449184857F065F9234B71
:104230001B68164918464BF095FD104BD3ED007ADC
:10424000FDEEE77A17EE900AFFF714FF0C4B93EDA3
:10425000007ADFED166AC7EE267AFDEEE77A17EEF2
:10426000900AFFF743FF074BD3ED007AFDEEE77AA4
:1042700017EE900AFFF71CFF00BF80BDBC20002096
:10428000C0200020C420002010EF0508D02000200E
:104290000421002020EF05084C2100202CEF050808
:1042A0000821002038EF05087021002000007A4422
:1042B00040EF05080C2100204CEF05089421002058
:1042C00080B582B000AF78600FE07B681B7819463C
:1042D0000A48FFF74AF800BF0848FFF733F80346DB
:1042E000002BF9D07B6801337B607B681B78002B47
:1042F000EBD100BF00BF0837BD4680BD00100140B4
:10430000F0B5ADF2D46D10AFA34B1B68A24A43F4D5
:1043100000731360A04B1B689F4A43F480631360D3
:104320009D4B1B689C4A43F4807313604FF480409C
:10433000FEF748FD4FF08050FEF702FD0320FEF728
:104340003DF9FEF75FF9034600220F211846FEF7FC
:10435000AFF9034619464FF0FF30FEF77FF900F042
:104360005FF98E4B1B688E4AA2FB03239B091846FC
:10437000FEF7D2F900F09EFC00F084FC00F09EFAFB
:1043800000F030FC00F0A2F900F006FA00F06CFB3F
:1043900000F0E6FA00F0ACFB8248FFF791FFFDF772
:1043A0009DFA8148FFF78CFF804A07F2846392E808
:1043B000030083E803007E4B07F274640FCB84E8AC
:1043C0000F007C4BC7F8503607F2546307F2846243
:1043D00092E8030083E80300774BC7F85C360823B4
:1043E000A7F86036744BC7F864360423A7F868361C
:1043F000714BC7F86C364FF40073A7F870366F4BEB
:104400001D683E460BAC07F274630FCB84E80F00C7
:1044100002230A9307F5CA630993694B0893694B12
:104420000793694B0693694B05930123049300237B
:104430000393002302934FF4A0730193F02300939E
:104440004FF4A073F0223146284601F029F80346C4
:104450005A4A1360594B1B685D4A13600FF0CAFE3D
:10446000FDF792FF554B1B684FF47F41184601F052
:104470008BFC4FF4FA6003F0DDFFFEF709F8544BB4
:104480001B681946534855F02FFE05F02DF8524B86
:104490001B681846FFF700F8504B1B6800211846B0
:1044A00033F0AAFB4E4B1B680021184633F0A4FBE7
:1044B0004C4B1B680021184633F09EFB00224FF442
:1044C0007A71494841F05AFB484BC7F88C36484B43
:1044D0001B680022D7F88C16184619F00AFA454BCB
:1044E0001B680022D7F88C16184619F002FA424BC6
:1044F0001B680022D7F88C16184619F0FAF93F4BC2
:104500001B680022D7F88C16184619F0F2F93C4BBC
:104510001B680022D7F88C16184619F0EAF9394BB7
:104520001B680022D7F88C16184619F0E2F9002211
:104530004FF47A71344841F021FB3448FEF7B8FD5E
:1045400054F040F80346002B03D13148FFF7B8FE82
:1045500002E03048FFF7B4FE2F48FEF7BDFE1920F9
:10456000FEF75EF801211920FEF778F82A48FEF7D9
:10457000A5FE2948FEF7BFFD41F036FA052003F0FD
:1045800059FF264B1B78DBB2012BF5D1234B0022C0
:104590001A70FFF7FFF9EFE7003C0240040000202B
:1045A000D34D621058EF05086CEF0508A4EF05081D
:1045B000ACEF0508003C004000000240F82000205D
:1045C000E1660008CD6600084D660008A965000890
:1045D0003820002040200020FC2000204421002022
:1045E000682100208C21002029410008C4440608CD
:1045F00004210020082100200C2100204C21002053
:104600007021002094210020613E0008003001400C
:1046100080EF050894EF050800000140CC20002041
:1046200080B500AF0320FEF71BFC00BFFEF72CFC9B
:104630000346032BFAD14FF44040FEF733FCFEF75C
:1046400011FA00BFFEF71EFA0346012BFAD1FEF75E
:104650003DFCFEF72BFA00BFFEF738FA0346012BAC
:10466000FAD1002360220C214FF48000FEF72AFBD0
:10467000FEF704FB00BFFEF711FB0346012BFAD146
:1046800000BFFEF747FC0346002BFAD00020FEF7E0
:1046900051FA4FF48050FEF761FA0020FEF772FAEB
:1046A0000220FEF725FA00BFFEF736FA0346082B74
:1046B000FAD1054803F0B0FE034803F0E1FE002004
:1046C000FEF7C6FA00BF80BD00E1F50580B58EB0EB
:1046D00000AF07F1180320220021184656F08BFF87
:1046E0003B4600221A605A609A60DA601A615A6189
:1046F0000220FEF70DFB4FF440733B6002237B600A
:104700000323BB600123FB6000233B6104237B6127
:104710003B4619461D4802F04FFA4FF40010FEF7D1
:104720000FFBFDF76FFF0346002200211846FDF73F
:10473000BFFF034619461F20FDF790FF1F20FDF71E
:104740006FFF1348FEF77DF91148FEF757F910483F
:10475000FEF744F90023BB610E4BFB6100233B6273
:104760000023FB624FF480633B634FF480437B6321
:1047700007F118031946064802F0ACFB0021044873
:10478000FEF74CF900BF3837BD4680BD000402403B
:1047900000540040A086010080B588B000AF07F14A
:1047A000100300221A605A609A6007F10803002281
:1047B0001A605A6000237B60FEF70CFA0346B3F5DB
:1047C000807F32D00023FB774FF08050FEF7D0FA85
:1047D0000346012B05D04FF08050FEF7B1FA0123BC
:1047E000FB77FEF783FB0346012B07D0FEF76EFB3A
:1047F00000BFFEF77BFB0346002BFAD0FEF708FA5A
:10480000FEF716FAFEF752F900BFFEF75FF903460E
:10481000012BFAD14FF48070FEF7C8F9FB7F012B12
:1048200003D14FF08050FEF7B9FAFEF7E1F94023CB
:104830003B617F237B61FF23BB6107F110031946B6
:104840001D4802F0E9FD7F211B48FEF777FBFF21A1
:104850001948FEF787FB00211748FEF714FC0346B2
:1048600043F2F222934222D00023BB6002233B7327
:1048700001237B732823BB7307F108031A46012128
:104880000D4802F0F9FD01233B7101237B710123E7
:10489000BB710023FB713B1D1A460121064802F043
:1048A00091FE43F2F22200210348FEF7D5FB00BF40
:1048B0002037BD4680BD00BF0028004080B590B0C5
:1048C00000AF07F1180328220021184656F093FE86
:1048D0003B4600221A605A609A60DA601A615A6197
:1048E0004FF48050FEF76EFA0120FEF711FAE02334
:1048F0003B6002237B600323BB600023FB6000233B
:104900003B6105237B613B461946134802F054F98D
:104910000023BB614FF48273FB6100233B620023E1
:104920007B620023BB624FF40073FB6220233B6376
:1049300000237B630023BB630A23FB6307F1180397
:104940001946064802F075FF00210448FEF7C0FB37
:1049500000BF4037BD4680BD00000240003001402E
:1049600080B590B000AF07F1180328220021184647
:1049700056F041FE3B4600221A605A609A60DA60A7
:104980001A615A614FF40040FEF7DAF90220FEF78F
:10499000BFF938233B6002237B600323BB60002305
:1049A000FB6000233B6106237B613B4619462B4895
:1049B00002F002F9002205212948FDF7CBFF402231
:1049C00005212748FDF7CAFE002205212448FDF7EE
:1049D0009DFF002205212248FDF7E4FE002205216B
:1049E0001F48FDF703FF4FF4806205211C48FDF7C7
:1049F00021FF4FF4006205211948FDF73FFF4FF4F6
:104A0000005205211648FDF75DFF05211448FDF70A
:104A1000C5FF0023BB614FF48273FB614FF4006359
:104A20003B6200237B620023BB624FF40073FB6296
:104A300000233B6300237B630023BB630A23FB63E8
:104A400007F118031946074802F0F3FE0021054854
:104A5000FEF73EFB00BF4037BD4680BD000402406C
:104A600000600240003C004080B586B000AF3B1DB6
:104A700000221A605A609A60DA601A610120FEF71B
:104A8000A1F9FDF7BFFD0346002200211846FDF7FE
:104A90000FFE034619461920FDF7E0FD1920FDF72A
:104AA000BFFD40F2F553BB800023BB604FF6FF73A0
:104AB000FB604FF400733B6100237B613B1D194693
:104AC0000A4802F07BFF0948FEF725FB0021074852
:104AD000FEF7BCFB00210548FEF7CDFB0348FEF7BF
:104AE000DDFB00BF1837BD4680BD00BF00000140A0
:104AF00080B594B000AF07F13C0300221A605A6001
:104B00009A60DA601A6107F11C032022002118461E
:104B100056F071FD3B1D00221A605A609A60DA60FF
:104B20001A615A610120FEF70BF940F2E733BB87A7
:104B300000233B64D1237B640023BB6407F13C0367
:104B400019464FF0804002F039FF4FF08040FEF7E9
:104B5000E2FA00214FF08040FEF778FB4FF48071BD
:104B60004FF08040FEF72EFB6023FB6100233B6289
:104B700000237B626823BB620023FB6207F11C03F6
:104B80001A464FF480714FF0804002F091FF4FF4CD
:104B900080714FF08040FEF7CFFA00214FF0804047
:104BA000FEF769FB4FF08040FEF778FB0220FEF72E
:104BB000AFF84FF480637B600223BB600023FB608F
:104BC00000233B6100237B610123BB613B1D194630
:104BD000034801F0F1FF00BF5037BD4680BD00BF64
:104BE0000004024080B58EB000AF07F11C03002224
:104BF0001A605A609A60DA601A615A619A613B1DC4
:104C000000221A605A609A60DA601A615A611020B4
:104C1000FEF7D8F80220FEF77BF8C0237B60022362
:104C2000BB600323FB6000233B6100237B61072300
:104C3000BB613B1D1946114801F0BEFF4FF4E13343
:104C4000FB6100233B6200237B620023BB620C23D9
:104C5000FB6200233B6300237B6307F11C031946BF
:104C6000074803F05BFB0648FEF756FB0448FEF7D7
:104C700043FB00BF3837BD4680BD00BF0004024083
:104C80000010014080B500AF4FF40010FEF740F86F
:104C9000FDF7B8FC0346002200211846FDF708FD89
:104CA000034619461020FDF7D9FC1020FDF7B8FC8B
:104CB00000BF80BD80B588B000AF07F118030022A7
:104CC0001A605A603B4600221A605A609A60DA60A5
:104CD0001A615A610420FEF71BF88020FEF718F8CD
:104CE0000120FEF715F80220FEF712F84FF40771C5
:104CF0003248FEF7C3FB02213148FEF7BFFB1C23FD
:104D00003B6001237B600223BB600023FB60002328
:104D10003B613B461946294801F04EFF02233B60A8
:104D200001237B600223BB600023FB6001233B6106
:104D30003B461946224801F03FFF4FF400733B60A9
:104D400001237B600223BB600023FB6001233B61E6
:104D50003B461946194801F02FFF4FF470210120FE
:104D6000FEF748F80123BB6101233B7700237B77E3
:104D70000223BB7707F11803184601F053FD012207
:104D800001210F48FEF73DFB002201210C48FEF7F0
:104D9000FBFAFDF737FC0346002201211846FDF718
:104DA00087FC034619460620FDF758FC0620FDF750
:104DB00037FC00BF2037BD4680BD00BF0000024069
:104DC0000004024080B483B000AF7860074B5A699A
:104DD0007B6813407A689A420CBF01230023DBB240
:104DE00018460C37BD465DF8047B7047003C014017
:104DF00080B483B000AF7860044A7B68536100BF21
:104E00000C37BD465DF8047B704700BF003C014095
:104E100080B483B000AF78607B686FF001021A61E4
:104E200000BF0C37BD465DF8047B704780B483B08B
:104E300000AF78607B681B6903F00103012B01D18F
:104E4000012300E0002318460C37BD465DF8047BC3
:104E5000704780B400AF00BFFDE780B400AF00BF73
:104E6000FDE780B400AF00BFFDE780B400AF00BF36
:104E7000FDE780B400AF00BFFDE780B400AF00BF26
:104E8000BD465DF8047B704780B400AF00BFBD46EF
:104E90005DF8047B704780B400AF00BFBD465DF88D
:104EA000047B704780B500AF074B1B680133064A8F
:104EB0001360064B1B68184655F0B3FB01203BF00E
:104EC00095FD00BF80BD00BFB8200020E8EB0020AA
:104ED00080B500AF0120FFF775FF0346002B07D018
:104EE0000120FFF785FF034B1B68184655F06CFB4C
:104EF00000BF80BDE8EB002080B500AF052102486F
:104F000000F028F900BF80BD0060024080B500AF0E
:104F10000848FFF78BFF0346002B08D00548FFF732
:104F200077FF0548FFF7CCF9044B01221A7000BF48
:104F300080BD00BF00000140BCEF0508CC20002070
:104F400080B400AF00BFBD465DF8047B704780B4FD
:104F500000AF01231846BD465DF8047B704780B55D
:104F600082B000AF7860396057F00CF90346162222
:104F70001A604FF0FF3318460837BD4680BD80B534
:104F800082B000AF78604FF0FF317868FFF7E7FF3D
:104F900000BFFDE780B586B000AFF860B9607A6009
:104FA00000237B610AE0AFF300800146BB685A1C16
:104FB000BA60CAB21A707B6901337B617A697B6817
:104FC0009A42F0DB7B6818461837BD4680BD80B535
:104FD00086B000AFF860B9607A6000237B6109E0B9
:104FE000BB685A1CBA601B781846AFF300807B6917
:104FF00001337B617A697B689A42F1DB7B681846F2
:105000001837BD4680BD80B483B000AF78604FF0E4
:10501000FF3318460C37BD465DF8047B704780B4FB
:1050200083B000AF786039603B684FF400525A603B
:10503000002318460C37BD465DF8047B704780B4EA
:1050400083B000AF7860012318460C37BD465DF889
:10505000047B704780B485B000AFF860B9607A60B7
:10506000002318461437BD465DF8047B70470000E6
:1050700080B586B000AF7860144A154BD31A7B61B7
:105080007B693B61134B1B68002B02D1114B124A09
:105090001A60104B1A687B6813443A699A4207D227
:1050A00057F070F803460C221A604FF0FF3309E006
:1050B000084B1B68FB60074B1A687B681344054A62
:1050C0001360FB6818461837BD4680BD00000220FB
:1050D00000100000F420002060ED002080B400AF3C
:1050E000064BD3F88830054A43F47003C2F8883081
:1050F00000BFBD465DF8047B704700BF00ED00E0D7
:10510000DFF834D0FFF7EAFF0C480D490D4A0023C1
:1051100002E0D458C4500433C4188C42F9D30A4A6C
:105120000A4C002301E013600432A242FBD357F083
:105130002FF8FFF7E5F8704700000220000000207C
:105140005C040020FC4D0608600400205CED00209B
:10515000FEE7000080B48BB000AF786039605C4A35
:1051600007F10C0392E8030083E803003B68032B7C
:1051700002D97B680C3301E07B6808333B6207F19E
:105180000C023B6813441B781A463F2393401A468F
:105190003B6A1A600023FB610023BB614D4B1B6817
:1051A0007B628BE07B6A9B6ABB617B6ADB6AFB612B
:1051B000BA697B689A427DD1FA693B689A4279D193
:1051C0007B6A1B6C002B0DD07B6A1B6C5B697A6A57
:1051D000B2F844201340002B04D07B6AD3F84C363D
:1051E0007B626BE03C4A3B6813441B781A467B6841
:1051F00013447B617B691B6823F001027B691A60A1
:1052000000E000BF7B691B6803F00103002BF8D1AD
:105210007B6AD3F83C36002B23D07B6AD3F83C362C
:10522000B3F5803F0DD37B694FF6FF725A607B6AFE
:10523000D3F83C36A3F57F43FF3B7A6AC2F83C368D
:1052400008E07B6AD3F83C267B695A607B6A0022BF
:10525000C3F83C267B691B6843F001027B691A6036
:1052600030E07B6A5B6A5A687B6A5B6A22F0020202
:105270005A6000E000BF7B6A5B6A9B6803F08003B2
:10528000002BF7D17B6A93F84136002B09D17B6A5A
:105290001B6C002B05D07B6AB3F844207B6A1B6C27
:1052A0009A617B6A5B6A1A687B6A5B6A22F04002D9
:1052B0001A6007E07B6AD3F84C367B627B6A002B6E
:1052C0007FF470AF2C37BD465DF8047B704700BF9C
:1052D000CCEF0508F8200020F4FB050880B485B069
:1052E00000AF78600B46FB701346BB707B685B6A4F
:1052F000FB60BB78002B07D17B689B8F1A467B68CD
:105300009B6B12049A6104E07B689A8F7B689B6BAD
:105310009A61FA78FB68DA6000E000BFFB689B687E
:1053200003F00203002BF8D000E000BFFB689B688D
:1053300003F08003002BF8D100BF00BF1437BD4637
:105340005DF8047B704780B582B000AF78607B6801
:105350001B6B002B11D07B689B8E1A467B681B6BE6
:1053600012049A61192003F065F87B689A8E7B68B5
:105370001B6B9A61192003F05DF800BF0837BD462A
:1053800080BD80B584B000AF786039607B685B6AAF
:10539000BB6000E000BF786800F020FA0346012BF4
:1053A000F8D07B6893F84136002B0BD17B681B6CDF
:1053B000002B07D07B68B3F844301A467B681B6C1F
:1053C00012049A61BB681B6823F42C42BB681A6004
:1053D000BB681B6843F04002BB681A603B685A1CFC
:1053E0003A601B78022B39D0022B3FDC002B02D015
:1053F000012B1ED03AE03B685A1C3A601B78002211
:1054000019467868FFF76AFF3B685A1C3A601B78B8
:10541000FB6008E03B685A1C3A601B780122194681
:105420007868FFF75BFFFB685A1EFA60002BF1D12A
:1054300032E03B685A1C3A601B78FB6008E03B682E
:105440005A1C3A601B78012219467868FFF746FF1C
:10545000FB685A1EFA60002BF1D11DE03B685A1C14
:105460003A601B78184602F0E5FF15E07B6893F878
:105470004136002B09D17B681B6C002B05D07B6863
:10548000B3F844207B681B6C9A61BB681B6823F0EF
:105490004002BB681A6000E0A0E71037BD4680BD3F
:1054A000B0B588B000AFF860B96011461A460B4637
:1054B000FB801346BB80BB68002B01D100235BE15E
:1054C0004FF4CA620021B86856F095F80023BB611A
:1054D000BB6897F8582083F84820BB687A6D03F1C1
:1054E000240415460FCD0FC40FCD0FC42B682360C5
:1054F000BB682833BB61BB691B68002B57D0BB69F5
:105500001B681946BB695B688D4AD35C0B447B61A1
:105510007B691B6823F001027B691A6000E000BF11
:105520007B691B6803F00103002BF8D1BB6893F87B
:105530004830012B0AD17B691B6823F4F0427B6958
:105540001A607B691A687B691A6010E0BB6893F87F
:105550004830022B0BD17B691B6823F4F0427B6936
:105560001A607B691B6843F420527B691A607B696F
:105570001B6823F4802323F00E037A6913607B6990
:105580005B6923F080027B695A617B691B6843F089
:1055900010027B691A607B691B6823F400727B69C7
:1055A0001A607B691B6843F480627B691A60BA8861
:1055B000FB88934238BF13467B82BA88FB889342AC
:1055C00028BF13463B8297F84030002B03D097F852
:1055D0004030022B2FD1BB683A8A9A80BB687A8A06
:1055E000DA80BB683A8E1A80BB68BA8E5A8097F808
:1055F0004030002B06D1BB683A8F5A81BB68BA8F06
:105600009A8155E0BB681A88BB689B88D31A9AB206
:105610003B8FD31A9BB21AB2BB685A81BB685A88B7
:10562000BB68DB88D31A9AB2BB8FD31A9BB21AB26B
:10563000BB689A813CE097F84030012B03D097F883
:105640004030032B2FD1BB687A8A9A80BB683A8A94
:10565000DA80BB68BA8E1A80BB683A8E5A8097F897
:105660004030012B0FD1BB68BA8F5A81BB685A8872
:10567000BB68DB88D31A9AB23B8FD31A9BB21AB29B
:10568000BB689A8114E0BB681A88BB689B88D31AF0
:105690009AB2BB8FD31A9BB21AB2BB685A81BB684D
:1056A0003A8F9A8104E0B86800F06AF8002363E05A
:1056B000BB681A88BB689B889A420BD3BB685A8820
:1056C000BB68DB889A4205D37B6C002B02D0BB6C95
:1056D000002B04D1B86800F053F800234CE0BB68FD
:1056E00097F840201A72BB687A6C5A61BB68BA6C32
:1056F0009A61BB68FA6CDA61BB683A6D1A62BB6882
:1057000003F14C0407F15C030FCB84E80F00BB6886
:10571000002283F84026BB680022C3F84C26BB68F1
:105720000022C3F84826BB6803F16002BB68DA6553
:10573000FB68002B01D1BB681EE0FB68FB610DE03C
:10574000F4FB0508FB69D3F84C36FB61BB6893F8A2
:1057500040360133DAB2BB6883F84026FB69D3F8E0
:105760004C36002BEED1BB68FA69C3F84826FB69BA
:10577000BA68C3F84C26BB6818462037BD46B0BD92
:1057800080B582B000AF78607B68002B05D04FF405
:10579000CA620021786855F02EFF00BF0837BD4669
:1057A00080BD80B582B000AF78607868FFF7CBFD30
:1057B0007B685B697A68127A1046984703461946F7
:1057C0007868FFF7DEFD7B6893F85A3019467868F1
:1057D00000F018F800BF0837BD4680BD80B483B024
:1057E00000AF78607B685B6A1B6803F04003002BA6
:1057F00001D0012300E0002318460C37BD465DF8B8
:10580000047B704780B485B000AF78600B46FB70B6
:10581000FB78642B01D96423FB707B68FA7883F8EA
:105820005A207B68DB6C002B4BD07B68DB6CDB6A1F
:10583000FA7802FB03F3314AA2FB03235B09FB6006
:105840007B681B6DB3F5805F1CD0B3F5805F1ED8FD
:10585000B3F5807F11D0B3F5807F18D8012B02D02B
:10586000102B05D013E07B68DB6CFA685A630FE0FD
:105870007B68DB6CFA689A630AE07B68DB6CFA6829
:10588000DA6305E07B68DB6CFA681A6400E000BF4D
:105890007B68DB6C1B6803F00103002B27D17B685E
:1058A000DB6C196A7B681A6D7B68DB6C0A431A62D1
:1058B0007B68DB6C1A687B68DB6C42F001021A6063
:1058C00015E07B685B6D002B11D0FB78002B06D0B8
:1058D0007B68B3F858207B685B6D9A6107E07B6852
:1058E000B3F858301A467B685B6D12049A6100BFAA
:1058F0001437BD465DF8047B704700BF1F85EB5130
:10590000B0B584B000AFF860084611461A460346A9
:105910007B810B463B811346FB80FB689C69FB68DF
:10592000B3F90A309AB27B89134498B2FB68B3F991
:105930000C309AB23B89134499B2FB68B3F90A3030
:105940009AB2FB8813449DB2FB68B3F90C309AB24B
:105950003B8C13449BB22A46A04703461946F8687D
:10596000FFF70FFD00BF1037BD46B0BD80B586B054
:1059700000AFF860B9607A60FB685B6A3B6100E089
:1059800000BFF868FFF72AFF0346012BF8D0FB6839
:1059900093F84136002B0BD1FB681B6C002B07D012
:1059A000FB68B3F844301A46FB681B6C12049A611A
:1059B000FB6893F84236002B04D1FB689A8FFB6892
:1059C0009B6B9A613B691B6823F42C423B691A600C
:1059D000FB6893F84830022B05D13B691B6843F400
:1059E00000623B691A603B691B6843F040023B69F7
:1059F0001A60FB6893F84830022B16D111E0BB689F
:105A00009A1CBA601B881A463B69DA6000E000BF46
:105A10003B699B6803F00203002BF8D07B68013BD5
:105A20007B607B68002BEAD11CE07B685B007B60BD
:105A3000BB687B6111E07B695A1C7A611B781A464E
:105A40003B69DA6000E000BF3B699B6803F002033A
:105A5000002BF8D07B68013B7B607B68002BEAD190
:105A600000E000BF3B699B6803F08003002BF8D186
:105A7000FB6893F84136002B09D1FB681B6C002BA7
:105A800005D0FB68B3F84420FB681B6C9A613B6946
:105A90001B6823F040023B691A6000BF1837BD46FF
:105AA00080BD000080B590B002AFF8600846114696
:105AB0001A4603467B810B463B811346FB807A895D
:105AC000FB889A4205D97B897B86FB887B817B8E0C
:105AD000FB803A89B7F840309A4207D93B897B86E8
